:100000000EC020C01FC01EC01DC01CC01BC01AC017
:1000100019C018C017C016C015C014C013C01124D1
:100020001FBECFE5D2E0DEBFCDBF10E0A0E6B0E05E
:10003000E0E7F3E002C005900D92A436B107D9F7CE
:1000400038D094C1DDCF07C0E9EFF0E03197F1F788
:1000500000C0000001970097B9F7089502C00000A2
:1000600001970097E1F70895FC01208131814281D9
:100070005381648175818FE388BB80E090E08217B3
:10008000930719F4E8B3E051E8BB8417950719F416
:10009000E8B3E85EE8BB8617970719F4E8B3E456BF
:1000A000E8BB000001968436910549F780E090E0B6
:1000B0000895A2E1B0E0EEE5F0E07AC08FEF87BBF3
:1000C00018BA24E130E03E872D878CE291E09887D2
:1000D0008F831A821982388B2F879A8789871C828F
:1000E0001B823A8B298B9C878B871E821D82E12C79
:1000F000F12C94E6C92ED12C20E9A22EBB24B39476
:1001000023C08701000F111F81E090E08C0F9D1F1D
:10011000080F191FF80120813181868197812817E6
:10012000390779F4BED0B60128D0F80195878487C5
:10013000B8D0B50122D0C296F80197838683118288
:100140001082FFEFEF1AFF0A83E0E816F104CCF209
:10015000CE010D9689DF89819A8101969A838983E0
:100160008B819C8101969C838B838D819E810196DE
:100170009E838D83E12CF12CE7CF97FB072E16F49D
:10018000009406D077FD08D027D007FC05D03EF4B8
:10019000909581959F4F0895709561957F4F089533
:1001A0002F923F924F925F926F927F928F929F9287
:1001B000AF92BF92CF92DF92EF92FF920F931F9375
:1001C000CF93DF93CDB7DEB7CA1BDB0B0FB6F89426
:1001D000DEBF0FBECDBF0994AA1BBB1B51E107C0F8
:1001E000AA1FBB1FA617B70710F0A61BB70B881FC7
:1001F000991F5A95A9F780959095BC01CD01089556
:100200008F929F92AF92BF92CF92DF92EF92FF9226
:10021000CF93DF93EC01688179818A819B8161159D
:1002200071058105910521F464E279ED8BE597E094
:100230002DE133EF41E050E05CD049015A0127EA5B
:1002400031E440E050E03CD06B017C012CEE34EF17
:100250004FEF5FEFC501B40133D0AB01BC01C40E59
:10026000D51EE61EF71EF7FE06C081E0C81AD108AB
:10027000E10880E8F80AC882D982EA82FB82E89421
:10028000D7F8EE24FF24C601DF91CF91FF90EF90C5
:10029000DF90CF90BF90AF909F908F900895B0DF88
:1002A000089580E690E0ACDF0895A0E0B0E0809390
:1002B000600090936100A0936200B0936300089582
:1002C000FF27EE27BB27AA2760FF04C0A20FB31F9A
:1002D000E41FF51F220F331F441F551F9695879566
:1002E0007795679589F70097760771F7CF01BD017C
:1002F0000895052E97FB16F4009406D057FD0CD0F8
:1003000013D007FC09D07EF4909580957095619587
:100310007F4F8F4F9F4F0895509540953095219571
:100320003F4F4F4F5F4F0895A1E21A2EAA1BBB1BF0
:10033000FD010DC0AA1FBB1FEE1FFF1FA217B307B1
:10034000E407F50720F0A21BB30BE40BF50B661FC7
:10035000771F881F991F1A9469F76095709580958B
:1003600090959B01AC01BD01CF010895F894FFCF9A
:040370000100000088
:00000001FF
