:100000000EC020C01FC01EC01DC01CC01BC01AC017
:1000100019C018C017C016C015C014C013C01124D1
:100020001FBECFE5D2E0DEBFCDBF10E0A0E6B0E05E
:10003000EEEEF3E002C005900D92A037B107D9F7BC
:1000400002D0D3C1DDCFA2E1B0E0E8E2F0E0E9C048
:100050008FEF87BB83EF8ABD81E083BF84EF80BFD2
:1000600080E78CBD89B7846489BFFE013D969E01FF
:10007000295F3F4FCE010196A6E6AA2EA0E0BA2E38
:10008000AE014D5E5F4FB4E1EB2EF12C0CE211E0BE
:10009000DD24DA94E192F192D9010D931D939D0133
:1000A000DC011D921D92CD01D5016D917D915D0107
:1000B000DB01DC92E417F50769F7BFE3EDE0F3E05D
:1000C000B150E040F040E1F700C00000E091660070
:1000D000F091670010822FE986E891E0215080407E
:1000E0009040E1F700C00000E0916800F0916900E5
:1000F0001082AFE9B6E8E1E0A150B040E040E1F79E
:1001000000C00000E0916A00F0916B001082FFE9EE
:1001100026E881E0F15020408040E1F700C0000077
:10012000E12CF12C68ECC62ED12C7BEF472E552408
:100130005A94E5E08E2E912C42C05701AA0CBB1CAC
:1001400001E010E00C0F1D1F0A0D1B1DD8012D91A1
:100150003C91119716968D919C9117972817390706
:1001600059F5DED03C01DCD0B60146D00196F8014D
:1001700097838683F501EA59FF4F0190F081E02DC6
:10018000C301B60139D09C01D8011C968D919C9178
:100190001D97880F991F880F991F280F391FC901B4
:1001A000B2012AD061506083C901B40125D0F801A1
:1001B0007587648711821082FFEFEF1AFF0A23E030
:1001C000E216F1040CF4B9CF89819A8101969A83E1
:1001D00089838B819C8101969C838B838D819E81F9
:1001E00001969E838D8389EF90E00197F1F700C01F
:1001F0000000E12CF12CE3CF97FB072E16F40094BE
:1002000006D077FD08D027D007FC05D03EF49095A6
:1002100081959F4F0895709561957F4F08952F9216
:100220003F924F925F926F927F928F929F92AF9286
:10023000BF92CF92DF92EF92FF920F931F93CF93D3
:10024000DF93CDB7DEB7CA1BDB0B0FB6F894DEBF6A
:100250000FBECDBF0994AA1BBB1B51E107C0AA1F4B
:10026000BB1FA617B70710F0A61BB70B881F991F57
:100270005A95A9F780959095BC01CD0108958F926C
:100280009F92AF92BF92CF92DF92EF92FF92CF9365
:10029000DF93EC01688179818A819B816115710509
:1002A0008105910521F464E279ED8BE597E02DE17C
:1002B00033EF41E050E05CD049015A0127EA31E4D4
:1002C00040E050E03CD06B017C012CEE34EF4FEF6E
:1002D0005FEFC501B40133D0AB01BC01C40ED51E24
:1002E000E61EF71EF7FE06C081E0C81AD108E10835
:1002F00080E8F80AC882D982EA82FB82E894D7F8BB
:10030000EE24FF24C601DF91CF91FF90EF90DF90A4
:10031000CF90BF90AF909F908F900895B0DF0895D9
:100320008CE690E0ACDF0895A0E0B0E080936C0034
:1003300090936D00A0936E00B0936F000895FF2717
:10034000EE27BB27AA2760FF04C0A20FB31FE41F3C
:10035000F51F220F331F441F551F969587957795DC
:10036000679589F70097760771F7CF01BD0108956A
:10037000052E97FB16F4009406D057FD0CD013D031
:1003800007FC09D07EF490958095709561957F4F1C
:100390008F4F9F4F089550954095309521953F4F31
:1003A0004F4F5F4F0895A1E21A2EAA1BBB1BFD0100
:1003B0000DC0AA1FBB1FEE1FFF1FA217B307E40744
:1003C000F50720F0A21BB30BE40BF50B661F771F9C
:1003D000881F991F1A9469F760957095809590957C
:0E03E0009B01AC01BD01CF010895F894FFCF41
:1003EE00000001000400490048004B00010000001D
:00000001FF
